:101D7A00494E4954204F4B210A00736574207465FB
:101D8A006D703A2564007365743A25640074656D54
:061D9A00703A25640A0006
:071C5200021C0000011E004E
:101E0100538E7F5389F0438901E4F58A758CEEC2C4
:081E11008DD28CD2A9D2AF22C0
:101E1900121C82121DA0121DC1121E01121E601277
:081E290015FFE4FDFF021C0A95
:10185100851C22851D23E4F524F525F526F527F5BC
:1018610028F529121E197BFF7A1D797A120E5490E0
:10187100000F7402F0A3F0E4A3F090001404F0A3AD
:101881007490F0C2A77530007531647B647A00E40E
:10189100FDFCFFFE1208D0D2A7E51E700302192934
:1018A100121BBF900016EEF0A3EFF07B017A0079D6
:1018B100001212617BFF7A1D7984900014E0F52DEE
:1018C100A3E0F52E120E547BFF7A1D799090001241
:1018D100E0F52DA3E0F52E120E547BFF7A1D7997CA
:1018E100900016E0F52DA3E0F52E120E54E4F51E3E
:1018F100852628852729E5282404F526900016E069
:10190100FEA3E07802CEC313CE13D8F9F527AF2892
:101911007E00C006E529FD7C00E526FB7A008E30BD
:10192100852731D0061208D0E51D30E01CE51CC327
:1019310013FEE51D13FFD3900013E09F900012E00A
:101941009E4004C2A18002D2A130B70320B67AE53D
:1019510024606DD3E51D9523E51C95224013E51DFB
:101961009523FFE51C9522FEC3EF9402EE940050EF
:1019710024C3E51D9523E51C9522504DE51D24C882
:10198100CFE4351CCFC39523CF9522FEC3EF94023C
:10199100EE94004034E525702220B70E900015E04A
:1019A1002464F0900014E03400F020B60E9000158D
:1019B100E0240AF0900014E03400F075250180095C
:1019C100752401851C22851D2330B70630B603E43A
:1019D100F525D3900015E09484900014E094034021
:1019E100077401F0A37490F0900016E0FEA3E0FFED
:1019F1007B02E4FD121A0A900014E0FEA3E0FF7BD3
:091A0100027D01121A0A02188488
:03000B00021D2BA8
:101D2B00C0E0C0D0051DE51D7002051CC394C8E5BD
:101D3B001C94004008751C00751D00051E758A005B
:081D4B00758CEED0D0D0E0321F
:101C59001008000101020303040405060607080829
:021C6900090967
:0B1E4300EF1FAC0670011E4C70F62271
:101C8200E4FDD2A07F0AFE121E43C2A07F507E0056
:101C9200121E43D2A07F147E00121E43A2A0E43380
:0A1CA200FD7F1E7E00121E43D2A03B
:011CAC002215
:101DE200E4FDFBC2A0EDC313FDD2A030A003430566
:0E1DF200807F087E00121E430BBB08E7AF0582
:011E000022BF
:081CAD00121CB5121C827FCC51
:021CB500AD0779
:101CB700E4FBC2A0ED1392A07F0A7E00121E43D25E
:101CC700A0EDC313FD0BBB08E97F087E00021E438E
:101BBF00E4F9FAF52AF52B121CB07F44121CAD7F05
:101BCF00BE121CB5121DE2A907121DE2AA07EFAD46
:101BDF0001F52AEDF52BE52AC4F854F0C868FEE5A7
:101BEF002BC4540F48FF7C007D0A1205F4E52B54DB
:0A1BFF000F2408F8E62FFFEC3EFE6D
:011C090022B8
:101DA000121CB07F4E121CB57FFF121CB5E4FF124F
:101DB0001CB57F7F121CAD7F48121CAD7FB8021C82
:011DC000B56D
:101DC10053877F759850538EBF538EFE53890F43AF
:101DD1008920758BFD758DFDC2ABD28ED299D2AFA4
:011DE10022DF
:041C6B00021A0064F5
:061261008B2A8A2B892C68
:10126700E4F530F52FF52EF52DF534F533F532F598
:1012770031F538F537F536F535F53CF53BF53AF503
:1012870039F540F53FF53EF53D90001612065BFF38
:10129700AEF090001412065BFDACF0D39FEC9E50AD
:1012A700030215EFED9FFFEC9EFED3EF9464EE94DF
:1012B70000400B900012E51A851BF0020693AB2A3B
:1012C700AA2BA92CE48F308E2FF52EF52D90000D2B
:1012D7001205D290000412074E90000812079812C8
:1012E700072E900004120798AF30AE2FAD2EAC2D0D
:1012F70012077EAB2AAA2BA92C90000412074E12C4
:1013070007BCD312071D4045AB2AAA2BA92C900076
:10131700041207DCC000C001C002C003AB2AAA2B1D
:10132700A92C12072ED003D002D001D000C3EF9B07
:10133700F530EE9AF52FED99F52EEC98F52DAB2AB1
:10134700AA2BA92C90000CE41205D28044AB2AAA40
:101357002BA92C9000041207DCC000C001C002C0FA
:1013670003AB2AAA2BA92C12072ED003D002D00137
:10137700D000C3EF9BF530EE9AF52FED99F52EECE3
:1013870098F52DAB2AAA2BA92C90000C74011205F5
:10139700D2AB2AAA2BA92C90000412074EE47B0299
:1013A700FAF9F81206C08F388E378D368C35AB2A8E
:1013B700AA2BA92C90000812074E1207BCEB2FFF8F
:1013C700EA3EFEE93DFDE83CFCAB38AA37A936A862
:1013D70035C312071D503FAB2AAA2BA92C90000832
:1013E70012074E1207BCEB2FFFEA3EFEE93DFDE870
:1013F7003CFCC3EF9538F538EE9537F537ED953664
:10140700F536EC9535F535AB2AAA2BA92C90000EAD
:10141700E41205D2803EAB2AAA2BA92C9000081211
:10142700074E1207BCEB2FFBEA3EFAE93DF9E83C11
:10143700F8C3E5389BF538E5379AF537E53699F57A
:1014470036E53598F535AB2AAA2BA92C90000E74F2
:10145700011205D2AB2AAA2BA92C90000F120593D3
:10146700FFE4FCFDFEAB30AA2FA92EA82D1206C063
:101477008F308E2F8D2E8C2DAB2AAA2BA92C900066
:1014870010120593FFE4FCFDFE1207BC1206C08F85
:10149700348E338D328C31AB2AAA2BA92C900011B4
:1014A700120593FFE4FCFDFEAB38AA37A936A83531
:1014B7001206C08F388E378D368C35AB2AAA2BA9EA
:1014C7002C90000C120593701AE53C2530F53CE58D
:1014D7003B352FF53BE53A352EF53AE539352DF510
:1014E700398018E5402530F540E53F352FF53FE5D4
:1014F7003E352EF53EE53D352DF53D90000D1205A7
:10150700937018E53C2534F53CE53B3533F53BE571
:101517003A3532F53AE5393531F53990000E12058D
:1015270093701AE53C2538F53CE53B3537F53BE547
:101537003A3536F53AE5393535F5398018E5402538
:1015470038F540E53F3537F53FE53E3536F53EE5BD
:101557003D3535F53D90001212065BFFAEF0E4FC19
:10156700FDE53C2FF53CE53B3EF53BED353AF53ADD
:10157700EC3539F539AF40AE3FAD3EAC3DAB3CAA9B
:101587003BA93AF8D312071D404FE53C9540F5308B
:10159700E53B953FF52FE53A953EF52EE539953D27
:1015A700F52DAE1AAF1BE4FCFDAB30AA2FA92EA870
:1015B7002DC312071D5011AB2AAA2BA92C9000127C
:1015C700E52F8530F0020693AB2AAA2BA92C9000B1
:1015D70012E51A851BF0020693AB2AAA2BA92C90B9
:1015E7000012E4F5F0020693AB2AAA2BA92C90006F
:0715F70012E4F5F012069367
:0115FE0022CA
:101E31000102040810204080C0F9A4B0999282F8F0
:021E410080908F
:071E6000C2A2C2A3C2A4222A
:101CD700AD07AC06E4FBEC30E704D2A28002C2A257
:101CE700ED25E0FDEC33FCC2A30000D2A300000BFE
:091CF700BB10E3D2A40000C2A45A
:011D000022C0
:081A0A008E2A8F2B8D2C8B2DF1
:101A1200E4FAF5307C037DE81206068F31AE2AAF78
:101A22002B7C037DE81206067E007F64CFCDCFCEED
:101A3200CCCE1206068F32AE2AAF2B7C007D64120A
:101A420006067E007F0ACFCDCFCECCCE1206068F01
:101A520033AE2AAF2B7C007D0A1206068D34121E8D
:101A620060E52C60057530048003E4F530AA30E5AA
:101A7200302403FFE433FEEAD39FEE6480F87480DF
:101A8200985040EA901E3193752E00F52FEA5403C8
:101A9200FBB52D142431F8E6901E3993547FFDE5F1
:101AA2002FF52EEDF52F801174312BF8E6901E39AB
:101AB20093FDE52FF52EEDF52FAF2FAE2E121CD78D
:0A1AC2000A80AC7FFF7E00021CD7F3
:101C6F00104AF80007E0001FFFE0000007FFF81F11
:021C7F00FFFF65
:1015FF00D2B37F057E00121D05C2B37F057E001298
:10160F001D05D2B37F057E00121D05C2A77D10E414
:10161F00FF121E5B1200037F0A7E00121D05121EB1
:10162F00577D1CE4FF1200067D12E4FF121E5B7D46
:10163F00127F121200067D13E4FF121E5B7D41E440
:10164F00FF1200067D14E4FF121E5B7D507F4012D7
:10165F0000067D10E4FF121E5BE4FD7F08120006FA
:10166F00121E577D1C7F01120006121D01121E57FC
:10167F007D1C7F03120006121D01121E577D1C7F59
:10168F0007120006121D01121E577D1C7F0F12003C
:10169F00067F287E00121D05121E577D397F0F12FF
:1016AF0000067F3C7E00121D057D01E4FF121E5BCC
:1016BF007D287F011200067D02E4FF121E5BE4FD10
:1016CF007F011200067D03E4FF121E5B7D307F1049
:1016DF001200067D08E4FF121E5B7D087F081200D2
:1016EF00067D0BE4FF121E5B7D057F111200067D48
:1016FF000CE4FF121E5B1200037D15E4FF121E5B4C
:10170F007D20E4FF1200067D30E4FF121E5BE4FD36
:10171F00FF1200067D34E4FF121E5B7D3F7F011236
:10172F0000067D35E4FF121E5BE4FDFF1200067D0F
:10173F0036E4FF121E5B7DEFE4FF1200067D37E4F7
:10174F00FF121E5BE4FDFF1200067D38E4FF121E40
:10175F005B7D3F7F011200067D39E4FF121E5BE4C3
:10176F00FDFF1200067D50E4FF121E5B7D017F011D
:10177F001200067D51E4FF121E5B7D037F091200EC
:10178F00067D52E4FF121E5B7D087F0B1200067D63
:10179F0053E4FF121E5B7D057F081200067D54E4A3
:1017AF00FF121E5B7D017F011200067D55E4FF12C3
:1017BF001E5B7D067F0D1200067D56E4FF121E5B39
:1017CF007D0A7F0E1200067D57E4FF121E5BE4FDBB
:1017DF007F011200067D58E4FF121E5B7D0B7F1FF9
:1017EF001200067D59E4FF121E5B7D017F0212007D
:1017FF00067D20E4FF121E5BE4FDFF1200067D2133
:10180F00E4FF121E5BE4FDFF1200067D0FE4FF12E2
:10181F001E5B7D017F1F120006121D017D07E4FF75
:10182F00121E5B7D16E4FF1200067F207E00121D44
:10183F00057D07E4FF121E5B7D17E4FF120006D241
:02184F00A722CE
:041D01007F2C7E01B4
:101D0500E4FDFCC3ED9FEE6480F8EC64809850150B
:101D1500E4FBFA0BBB00010AEB64644A70F50DBDE8
:051D250000010C80DE4E
:011D2A002296
:091E4E008F908D80C2A5D2A5225F
:041E57007D11E4FF16
:051E5B00C2A6021E4EAC
:03000300E4FDFF1A
:05000600D2A6021E4E0F
:041C0A008F2A8D2B65
:101C0E00C2A775480175493F7BEF7A00E4FDFCFFE2
:101C1E00FE121B58E4F52CF52DE4FBFAAD2BAF2A82
:101C2E001200060BBB00010AEB64F04A70EE052DA4
:101C3E00E52D7002052CC39440E52C648094814000
:031C4E00D8D2A742
:011C51002270
:0C08D0008E2A8F2B8C2C8D2D8A2E8B2FC6
:1008DC00C3E52F952BFDE52E952AFC1202188F35BA
:1008EC008E348D338C32C3E531952DFDE530952C4E
:1008FC00FC120218AB35AA34A933A8321201098FA5
:10090C00418E408D3F8C3EC3E52B952FE52E6480A8
:10091C00F8E52A6480984003020A40E4FFFE7D80DB
:10092C007C3FAB41AA40A93FA83E1201A6600540FE
:10093C0003020A40E4FFFE7D807CBFAB41AA40A9C4
:10094C003FA83E1201A65003020A40AC2CAD2DEC80
:10095C001202188F3D8E3C8D3B8C3AAC2AAD2BECA1
:10096C001202188F398E388D378C36AC2EAD2FEC99
:10097C00120218AB39AA38A937A8361201A660059D
:10098C004003020A40AF39AE38AD37AC36120251D3
:10099C00C006C007E4FFFEFD7C3FAB3DAA3CA93B73
:1009AC00A83A120015120251AC06AD07C004C005DE
:1009BC00E4FFFE7D807C3FAB39AA38A937A83612FC
:1009CC000015120251AA06AB07C002C003E4FFFED9
:1009DC007DC07C3FAB3DAA3CA93BA83A1200151246
:1009EC0002518E488F49D003D002D005D004D007D5
:1009FC00D006121B587DFFE4FF120006AF3DAE3C43
:100A0C00AD3BAC3AAB41AA40A93FA83E1200158FB2
:100A1C003D8E3C8D3B8C3AAF39AE38AD37AC36E4BD
:100A2C00FBFA7980783F1200158F398E388D378C10
:100A3C0036020977D3E52B952FE52E6480F8E52A4D
:100A4C006480985003020B6BE4FFFE7D807C3FAB0F
:100A5C0041AA40A93FA83E1201A660054003020B23
:100A6C006BE4FFFE7D807CBFAB41AA40A93FA83E52
:100A7C001201A65003020B6BAC2CAD2DEC1202181C
:100A8C008F3D8E3C8D3B8C3AAC2AAD2BEC12021870
:100A9C008F398E388D378C36AC2EAD2FEC12021868
:100AAC00AB39AA38A937A8361201A65003020B6B32
:100ABC00AF39AE38AD37AC36120251C006C007E4C0
:100ACC00FFFEFD7C3FAB3DAA3CA93BA83A120015AA
:100ADC00120251AC06AD07C004C005E4FFFE7D80D8
:100AEC007C3FAB39AA38A937A8361200151202512F
:100AFC00AA06AB07C002C003E4FFFE7DC07C3FAB7F
:100B0C003DAA3CA93BA83A1200151202518E488FFF
:100B1C0049D003D002D005D004D007D006121B5800
:100B2C007DFFE4FF120006AF3DAE3CAD3BAC3AABF3
:100B3C0041AA40A93FA83E1200118F3D8E3C8D3B2F
:100B4C008C3AAF39AE38AD37AC36E4FBFA798078F5
:100B5C00BF1200158F398E388D378C36020AA4C31C
:100B6C00E52D9531E5306480F8E52C6480984003E0
:100B7C00020CAFE4FFFE7D807C3FAB41AA40A93F55
:100B8C00A83E1201A65019E4FFFE7D807CBFAB414C
:100B9C00AA40A93FA83E1201A660054003020CAF73
:100BAC00AB41AA40A93FA83EE4FFFE7D807C3F12EA
:100BBC0001098F418E408D3F8C3EAC2AAD2BEC123F
:100BCC0002188F398E388D378C36AC2CAD2DEC123B
:100BDC0002188F3D8E3C8D3B8C3AAC30AD31EC1213
:100BEC000218AB3DAA3CA93BA83A1201A6600540ED
:100BFC0003020CAFE4FFFEFD7C3FAB39AA38A937EA
:100C0C00A836120015120251C006C007AF3DAE3C0B
:100C1C00AD3BAC3A120251AC06AD07C004C005E4C2
:100C2C00FFFE7DC07C3FAB39AA38A937A83612002D
:100C3C0015120251AA06AB07C002C003E4FFFE7DE9
:100C4C00807C3FAB3DAA3CA93BA83A12001512028E
:100C5C00518E488F49D003D002D005D004D007D094
:100C6C0006121B587DFFE4FF120006AF39AE38ADFB
:100C7C0037AC36AB41AA40A93FA83E1200158F39BC
:100C8C008E388D378C36AF3DAE3CAD3BAC3AE4FB89
:100C9C00FA7980783F1200158F3D8E3C8D3B8C3A53
:100CAC00020BE6D3E52D9531E5306480F8E52C6434
:100CBC0080985003020DF1E4FFFE7D807CBFAB41B8
:100CCC00AA40A93FA83E1201A660194017E4FFFEF6
:100CDC007D807C3FAB41AA40A93FA83E1201A650A3
:100CEC0003020DF1AB41AA40A93FA83EE4FFFE7DF3
:100CFC00807C3F1201098F418E408D3F8C3EAC2A87
:100D0C00AD2BEC1202188F398E388D378C36AC2CFB
:100D1C00AD2DEC1202188F3D8E3C8D3B8C3AAC30D5
:100D2C00AD31EC120218AB3DAA3CA93BA83A12011A
:100D3C00A65003020DF1E4FFFEFD7C3FAB39AA384F
:100D4C00A937A836120015120251C006C007AF3DD4
:100D5C00AE3CAD3BAC3A120251AC06AD07C004C080
:100D6C0005E4FFFE7DC07C3FAB39AA38A937A83615
:100D7C00120015120251AA06AB07C002C003E4FF11
:100D8C00FE7D807C3FAB3DAA3CA93BA83A120015E6
:100D9C001202518E488F49D003D002D005D004D016
:100DAC0007D006121B587DFFE4FF120006AF39AEC8
:100DBC0038AD37AC36AB41AA40A93FA83E12001162
:100DCC008F398E388D378C36AF3DAE3CAD3BAC3A5F
:100DDC00E4FBFA798078BF1200158F3D8E3C8D3B79
:050DEC008C3A020D2A03
:010DF10022DF
:101B58008E428F438C448D457D20E4FF121E5BE549
:101B680042FFAD431200067D21E4FF121E5BE544EF
:101B7800FFAD451200067D37E4FF121E5BE542FF0C
:101B8800AD431200067D39E4FF121E5BE544FFAD4C
:101B9800451200067D36E4FF121E5BAF02AD03124C
:101BA80000067D38FF121E5BE548FFAD49120006AE
:071BB8007D22E4FF021E5B29
:10000E000202BDE86480F8E933E83360110460F061
:10001E00ED33EC337009E8FCE9FDEAFEEBFF220458
:10002E0060DED3EB9FEA9EE99DE8C2E78CF0C2F753
:10003E0095F0400CE8CCF8E9CDF9EACEFAEBCFFB1F
:10004E0012028885D0F05804700320D5B3E80470EE
:10005E00075002B2D50202C792D5EC0460F7E4CC89
:10006E00C0E0C398F8603B94186008400DD0E0FBE8
:10007E0002029FE4FBFAC9FC8028E830E406E4C9DA
:10008E00FBE4CAFCE830E305E4C9CACBFCE854073C
:10009E006010F8C3E913F9EA13FAEB13FBEC13FC47
:1000AE00D8F130F52FC3E49CFCEF9BFFEE9AFEEDEA
:1000BE0099FDD0E0FBEF4E4D4C701222DB03020295
:1000CE00C4EC2CFCEF33FFEE33FEED33FDED30E7E9
:1000DE00EB02029FEF2BFFEE3AFEED39FDD0E0FB77
:1000EE0050130BBB00030202C7ED13FDEE13FEEF20
:0800FE0013FFEC13FC02029F4A
:100106000202C7EC5D046005E8590470030202BDF3
:10011600120288580460F6EC4860F2EC7004FDFEAA
:10012600FF22C860DB2481C85009C39860025006CC
:100136000202C49850CAF582E9294B4A7005AB827F
:100146000202B375F0007C1A7880C3EF9BEE9AED3D
:1001560099400DC3EF9BFFEE9AFEED99FDE842F044
:10016600DC23ACF0D0E0FFD0E0FED0E0FDAB822097
:10017600E7101BEB60BAEC2CFCEF33FFEE33FEED21
:1001860033FD02029FE803F830E705C0F075F00082
:10019600EF2FFFEE33FEED33FD40B830E7C280AA05
:1001A60074F8CC6480CCC86480C8F582046043C30C
:1001B600EB9FF5F0EA9E42F0E99D42F0E89C45F09F
:1001C60060305018E5825FFFE582F42B5582FB50C4
:1001D600210ABA001D09B90019088016E5825BFBE1
:1001E600E582F42F5582FF50090EBE00050DBD00B5
:1001F600010CC3EB9FF5F0EA9E42F0E99D42F0E860
:0D0206009C45F06007CC4820E701B3EC22D6
:1002130075F020800E75F010800575F0087D007E66
:10022300007F003392D530D50312070FEC33401013
:10023300EF33FFEE33FEED33FDEC33FCD5F0ED226F
:0E024300E5F0247EA2D513CC92E7CDCEFF22AB
:10025100EDD2E7CD33EC3392D524814006E4FFFEA5
:10026100FDFC22FCE4CFCECDCC24E0501174FF8004
:10027100EDC3CC13CCCD13CDCE13CECF13CF0470A1
:07028100F030D5DE02070F8B
:100DF200E541242DF8E6054122782A300702782DB4
:100E0200E475F00112080C02057A2000EB7F2ED265
:100E1200008018EF540F2490D43440D4FF30040BD8
:100E2200EF24BFB41A0050032461FFE542600215AB
:100E3200420545E5457002054430070D782AE47500
:100E4200F00112080CEF0205C0021D537403D20711
:100E52008003E4C207F5418B2A8A2B892CE4F542F0
:100E6200F544F545E54260077F20120E2D80F575A9
:100E720043FFC201C200C202C203C205C206C208C7
:100E8200120DFBFF700D3007057F00120E3EAF45BD
:100E9200AE4422B4255FC2D5C204120DFBFF24D09A
:100EA200B40A00501A75F00A784230D50508B6FF28
:100EB2000106C6A426F620D5047002D20380D924E6
:100EC200CFB41A00EF5004C2E5D20402112BD201B2
:100ED20080C6D20080C0D20280BCD2D580BAD205F0
:100EE20080B47F20120E2D2002077401B54200400B
:100EF200F1120DF2FF120E2D020E66D208D20680FA
:100F020095120DF2FB120DF2FA120DF2F94A4B7024
:100F12000679227A127BFF20022EE542602A7E00A9
:100F22008E8275830012059360060EEE654370F0A3
:100F3200C2D5EBC0E0EAC0E0E9C0E0EE12118BD00E
:100F4200E0F9D0E0FAD0E0FB12057AFF60AAEBC02C
:100F5200E0EAC0E0E9C0E0120E2DD0E02401F9D0B1
:100F6200E03400FAD0E0FBE5430460DCD543D980ED
:100F720087D20280A212116E60F7E543700104125B
:100F820002D2A943600DE543600914F5431212151C
:100F9200EF60F3EA30E702F404C3995077EAF425EC
:100FA200430430E701E404F543800D12116E60C181
:100FB200EA054325431202D2EA7840F630E701E41B
:100FC200254304D543042005011412118BE4C0E02B
:100FD2001212157840E6601320E70714F6120E1578
:100FE200802204F6D0E014C0E07F00120E15E54323
:100FF2006007120E0C1543800B300503120E0CD045
:10100200E0020E66D0E00480C512116E60A0E543D6
:10101200041202D27840EAF6E54320050260010498
:10102200240412118B74FF04C0E0121215120E1563
:10103200E5432005026003120E0CD0E0B543E87FC1
:1010420045120E1F7840E67F2B30E7047F2DF40413
:10105200C0E0120E2DD0E075F00A84C0F0120E1618
:10106200D0E0120E16020E66791080027908C206CE
:10107200C2088008D2D5790A8004790AC2D5E5432C
:05108200047002F543BB
:10108700E4FAFDFEFF120DF2FC7B08200113120D9E
:10109700F2FD7B1030000A120DF2FE120DF2FF7BFB
:1010A70020EC3382D592D55013C3E43000069FFF5E
:1010B700E49EFEE42001039DFDE49CFCE4CBF8C222
:1010C70001EC700CCFCECDCCE824F8F870F3801784
:1010D700C3EF33FFEE33FEED33FDEC33FCEB33FBB5
:1010E700994002FB0FD8E9EB300105F8D0E0C4487E
:1010F700B201C0E00AEC4D4E4F78207B0070C2EA87
:10110700B5430040BCC0E012118DD0F0D0E0200103
:1011170004C4C0E0C4B201C0F0120E16D0F0D5F07E
:10112700EB020E6612081C0F0353106A580ED44CBC
:101137000ED042106E4F1076441076490EE94310D8
:101147007C550FAD46100B450F77471242500ED80E
:101157002D0EDC2E0EFF2B0EE0230EFD2012302A63
:101167000E984800000EF7E543B4FF0375430612D7
:101177000DF2FC120DF2FD120DF2FE120DF2FF78C8
:1011870039020301790AA2D5200314300509B910E1
:10119700020404B9080104A2D52006025001042064
:1011A70002689202B542005034C0E07F2030031934
:1011B7007F30A20272067205500F1211E4C202C2FA
:1011C70006C205C2087F30800F300503E9C0E01270
:1011D7000E2D300503D0E0F9D0E0B542CC3005172D
:1011E7007F30B9100C120E2D7F583004077F78809E
:1011F70003B90803120E2D3002057F2D020E2D7F35
:10120700202008F87F2B2006F322920280CF7F0050
:10121700B4070050052439F8E6FF22286E756C6C78
:1012270029002D50434958D201120DF23001F8C25E
:1012370001784230D50108F6020E98120DF2240308
:10124700B405004001E490122993120E1E743A125D
:0A1257000E1ED20375420402106A55
:10028800E9D2E7C933E833F892D5EDD2E7CD33ECBC
:0702980033FC5002B2D52235
:10029F00EC30E7100FBF000C0EBE00080DBD0004C0
:1002AF000BEB6014A2D5EB13FCED92E7FD2274FF6C
:1002BF00FCFDFEFF22E480F8A2D574FF13FC7D80C5
:0302CF00E480EFD9
:1002D200F920E72824F950037907E4F42402FB18F3
:1002E200DBFDE624FB5014E9600DE4F618E604F6A3
:0F02F200B40A08E4F6D9F57401F60A22C2D5223F
:10030100ED33EC3392D5FA602AB4FF33EDC2E77BCB
:10031100FF60067A037926E4227A03792F20D50437
:100321007A03792A224E614E002B494E46002D490F
:100331004E4600E47A08F608DAFC7B00740722E8EE
:10034100C0E0ECC0E0EDC0E0EEC0E0EFC0E0EA7577
:10035100F010A4CAABF075F04DA42BFBE435F0FC12
:10036100EA2410FAEB34C5FBEC34D9FCEDC2E7FF0B
:1003710075F056A4F42411C5F0F434C58FF0A42A05
:10038100E5F03BE43CF620E71412053AD0E0FFD05B
:10039100E0FED0E0FDD0E0FC1201098014F404126B
:1003A100053AD0E0FFD0E0FED0E0FDD0E0FC120441
:1003B10004D0E0F8E6FAEDD2E7CD33EC332482FB4A
:1003C100E4C3CF33CFCE33CECD33CD33DBF37B0795
:1003D10075F00A846004F6081B0AE5F0F6088FF050
:1003E100740AA4FFACF08EF0740AA42CFEACF05099
:1003F100010C8DF0740AA42CFDE435F0F608DBDE67
:030401007407225B
:10040400EC4D6011E8497017ED33EC3304600DE4F2
:10041400FCFFFEFD22E933E8330470F80202BD124A
:10042400028858046009E4CC24815006285009024B
:1004340002C72840030202C4C0E0EB4A7044B980FA
:1004440006D0E0FB0202B3EF4E701CBD8008EBFF48
:10045400EAFEE9FD80EBE98DF0A4FEE5F00204ED8F
:10046400E9CDF9EAFEEBFFEF89F0A4FCE5F0CE89D3
:10047400F0A42EFFE435F0CD89F0A42DFEE435F090
:100484008067EF4E7005BD80D780C3EF8BF0A4ACBE
:10049400F0EE8BF0A42CFCE435F0F8EF8AF0A42CF9
:1004A400E5F038FCE433CB8DF0A42CFCE5F03BF80C
:1004B400EE8AF0A42CFCE5F038F8E433CF89F0A4FC
:1004C4002CFCE5F038CF3400CE89F0A42FFFE5F002
:1004D4003EFEE433C98DF0A42EFEE5F039CD8AF05A
:1004E400A42FFFE5F03EFEE43DFD33D0E0FB5007D2
:1004F4000BBB000F0202C7EC2CFCEF33FFEE33FE04
:06050400ED33FD02029F31
:10050A003F8000004120000042C80000447A0000F9
:10051A00461C400047C35000497424004B1896807B
:10052A004CBEBC205A0E1BCA6753C21C749DC5AE72
:10053A00FB60065407601C2323120568EB543860DD
:10054A0009120554120563120404ECF8EDF9EEFAE7
:10055A00EFCB22EB12056380F1543803241C90057B
:10056A000AFE93FC0EEE93FD0EEE930ECE93FF223F
:03000000021ACC15
:0C1ACC00787FE4F6D8FD758159021B13E9
:10057A00BB010689828A83E0225002E722BBFE027F
:09058A00E32289828A83E49322B2
:10059300BB010CE58229F582E5833AF583E022501D
:1005A30006E92582F8E622BBFE06E92582F8E22267
:0D05B300E58229F582E5833AF583E4932281
:1005C000BB010689828A83F0225002F722BBFE011A
:0205D000F32214
:1005D200F8BB010DE58229F582E5833AF583E8F05F
:1005E200225006E92582C8F622BBFE05E92582C80B
:0205F200F222F3
:1005F400EF8DF0A4A8F0CF8CF0A428CE8DF0A42E1B
:02060400FE22D4
:10060600BC000BBE0029EF8DF084FFADF022E4CCD8
:10061600F875F008EF2FFFEE33FEEC33FCEE9DECA1
:10062600984005FCEE9DFE0FD5F0E9E4CEFD22EDE7
:10063600F8F5F0EE8420D21CFEADF075F008EF2F31
:10064600FFED33FD4007985006D5F0F222C398FD22
:050656000FD5F0EA22BF
:10065B00BB0110E58229F582E5833AF583E0F5F0DD
:10066B00A3E0225009E92582F886F008E622BBFEBA
:10067B000AE92582F8E2F5F008E222E5832AF58300
:08068B00E993F5F0A3E99322C5
:10069300F8BB0111E58229F582E5833AF583E8F099
:1006A300E5F0A3F0225009E92582C8F608A6F02256
:0D06B300BBFE09E92582C8F2E5F008F2223D
:1006C000E88FF0A4CC8BF0A42CFCE98EF0A42CFCD9
:1006D0008AF0EDA42CFCEA8EF0A4CDA8F08BF0A457
:1006E0002DCC3825F0FDE98FF0A42CCD35F0FCEBB6
:1006F0008EF0A4FEA9F0EB8FF0A4CFC5F02ECD397B
:0F070000FEE43CFCEAA42DCE35F0FDE43CFC22E7
:0E070F00C3E49FFFE49EFEE49DFDE49CFC22FB
:10071D00EB9FF5F0EA9E42F0E99D42F0E89C45F032
:01072D0022A9
:10072E00BB010789828A8302084E5005E9F8020848
:10073E0042BBFE05E9F802085A89828A83020866DE
:10074E00BB010DE58229F582E5833AF58302084E59
:10075E005007E92582F8020842BBFE07E92582F818
:10076E0002085AE58229F582E5833AF58302086686
:10077E00BB010789828A830208B85005E9F802088E
:0A078E00ACBBFE05E9F80208C42226
:10079800BB010DE58229F582E5833AF5830208B8A5
:1007A8005007E92582F80208ACBBFE07E92582F864
:0407B8000208C4224D
:1007BC00BB010789828A830208835005E9F8020885
:1007CC0076BBFE05E9F802088F89828A8302089CB1
:1007DC00BB010DE58229F582E5833AF58302088396
:1007EC005007E92582F8020876BBFE07E92582F856
:1007FC0002088FE58229F582E5833AF58302089C8D
:10080C00FAE6FB0808E6F925F0F618E6CA3AF622ED
:10081C00D083D082F8E4937012740193700DA3A36B
:10082C0093F8740193F5828883E47374029368607F
:06083C00EFA3A3A380DF7F
:101D5300EFB40A07740D121D5E740A309811A89926
:101D6300B8130CC2983098FDA899C298B811F630F0
:071D730099FDC299F59922C8
:101AD800021851E493A3F8E493A34003F68001F2BB
:101AE80008DFF48029E493A3F85407240CC8C3330F
:101AF800C4540F4420C8834004F456800146F6DFDE
:101B0800E4800B0102040810204080901C52E47EFF
:101B1800019360BCA3FF543F30E509541FFEE493D2
:101B2800A360010ECF54C025E060A840B8E493A399
:101B3800FAE493A3F8E493A3C8C582C8CAC583CAC4
:101B4800F0A3C8C582C8CAC583CADFE9DEE780BE7C
:011C81000062
:0C084200E6FC08E6FD08E6FE08E6FF22E2
:0C084E00E0FCA3E0FDA3E0FEA3E0FF221D
:0C085A00E2FC08E2FD08E2FE08E2FF22DA
:10086600E493FC740193FD740293FE740393FF22D8
:0D087600E6FB08E6F908E6FA08E6CBF822F2
:0C088300E0F8A3E0F9A3E0FAA3E0FB22F8
:0D088F00E2FB08E2F908E2FA08E2CBF822E9
:10089C00E493F8740193F9740293FA740393FB22B2
:0C08AC00ECF608EDF608EEF608EFF62278
:0C08B800ECF0A3EDF0A3EEF0A3EFF022B3
:0C08C400ECF208EDF208EEF208EFF22270
:00000001FF
