:100E1700494E4954204F4B210A007365742074656D
:100E27006D703A2564007365743A25640074656DC6
:060E3700703A25640A0078
:070E9E00021C0000011E0010
:100EBC00538E7F5389F0438901E4F58A758CEEC219
:080ECC008DD28CD2A9D2AF2215
:0F0EE600120D49120E3D120E5E120EBC020003D9
:100A5000851C22851D23E4F524F525120EE67BFF77
:100A60007A0E791712040E90000F7402F0A3F0E4CE
:100A7000A3F090001404F0A37490F0E51E605012EF
:100A80000CFE900016EEF0A3EFF07B017A007900E7
:100A900012000E7BFF7A0E7921900014E0F529A355
:100AA000E0F52A12040E7BFF7A0E792D900012E0F9
:100AB000F529A3E0F52A12040E7BFF7A0E79349013
:100AC0000016E0F529A3E0F52A12040EE4F51EE570
:100AD0001D30E01CE51CC313FEE51D13FFD3900081
:100AE00013E09F900012E09E4004C2A18002D2A1B8
:100AF00030B70320B67AE524606DD3E51D9523E574
:100B00001C95224013E51D9523FFE51C9522FEC38D
:100B1000EF9402EE94005024C3E51D9523E51C9547
:100B200022504DE51D24C8CFE4351CCFC39523CFFB
:100B30009522FEC3EF9402EE94004034E525702226
:100B400020B70E900015E02464F0900014E034000B
:100B5000F020B60E900015E0240AF0900014E03466
:100B600000F07525018009752401851C22851D234F
:100B700030B70630B603E4F525D3900015E0948431
:100B8000900014E0940340077401F0A37490F09077
:100B90000016E0FEA3E0FF7B02E4FD120BB0900024
:100BA00014E0FEA3E0FF7B027D01120BB0020A7B82
:03000B00020DC81B
:100DC800C0E0C0D0051DE51D7002051CC394C8E530
:100DD8001C94004008751C00751D00051E758A00CE
:080DE800758CEED0D0D0E03292
:100EA50010080001010203030404050606070808EB
:020EB500090929
:0B0EF500EF1FAC0670011E4C70F622CF
:100D4900E4FDD2A07F0AFE120EF5C2A07F507E00FC
:100D5900120EF5D2A07F147E00120EF5A2A0E43384
:0A0D6900FD7F1E7E00120EF5D2A0E1
:010D7300225D
:100E7F00E4FDFBC2A0EDC313FDD2A030A0034305D8
:0E0E8F00807F087E00120EF50BBB08E7AF0552
:010E9D002232
:080D7400120D7C120D497FCC29
:020D7C00AD07C1
:100D7E00E4FBC2A0ED1392A07F0A7E00120EF5D204
:100D8E00A0EDC313FD0BBB08E97F087E00020EF534
:100CFE00E4F9FAF526F527120D777F44120D747F6D
:100D0E00BE120D7C120E7FA907120E7FAA07EFAD41
:100D1E0001F526EDF527E526C4F854F0C868FEE582
:100D2E0027C4540F48FF7C007D0A120757E527544D
:0A0D3E000F2408F8E62FFFEC3EFE3C
:010D48002288
:100E3D00120D777F4E120D7C7FFF120D7CE4FF1299
:100E4D000D7C7F7F120D747F48120D747FB8020DDB
:010E5D007C18
:100E5E0053877F759850538EBF538EFE53890F4321
:100E6E008920758BFD758DFDC2ABD28ED299D2AF16
:010E7E002251
:040EB700021A0064B7
:06000E008B268A278928D9
:10001400E4F52CF52BF52AF529F530F52FF52EF519
:100024002DF534F533F532F531F538F537F536F588
:1000340035F53CF53BF53AF5399000161207BEFF4D
:10004400AEF09000141207BEFDACF0D39FEC9E50AE
:100054000302039CED9FFFEC9EFED3EF9464EE94A9
:1000640000400B900012E51A851BF00207F6AB2640
:10007400AA27A928E48F2C8E2BF52AF52990000DA8
:100084001207359000041208A39000081208ED121C
:1000940008839000041208EDAF2CAE2BAD2AAC29D6
:1000A4001208D3AB26AA27A9289000041208A31289
:1000B4000911D31208724045AB26AA27A92890003B
:1000C40004120931C000C001C002C003AB26AA2734
:1000D400A928120883D003D002D001D000C3EF9B1B
:1000E400F52CEE9AF52BED99F52AEC98F529AB262B
:1000F400AA27A92890000CE41207358044AB26AA4D
:1001040027A928900004120931C000C001C002C010
:1001140003AB26AA27A928120883D003D002D00152
:10012400D000C3EF9BF52CEE9AF52BED99F52AEC54
:1001340098F529AB26AA27A92890000C7401120768
:1001440035AB26AA27A9289000041208A3E47B0251
:10015400FAF9F81208238F348E338D328C31AB26A2
:10016400AA27A9289000081208A3120911EB2FFF4F
:10017400EA3EFEE93DFDE83CFCAB34AA33A932A8D3
:1001840031C3120872503FAB26AA27A92890000851
:100194001208A3120911EB2FFFEA3EFEE93DFDE828
:1001A4003CFCC3EF9534F534EE9533F533ED9532DD
:1001B400F532EC9531F531AB26AA27A92890000E2B
:1001C400E4120735803EAB26AA27A928900008121E
:1001D40008A3120911EB2FFBEA3EFAE93DF9E83CCA
:1001E400F8C3E5349BF534E5339AF533E53299F5F4
:1001F40032E53198F531AB26AA27A92890000E7470
:1002040001120735AB26AA27A92890000F12070868
:10021400FFE4FCFDFEAB2CAA2BA92AA82912082373
:100224008F2C8E2B8D2A8C29AB26AA27A9289000E7
:1002340010120708FFE4FCFDFE1209111208238FB7
:10024400308E2F8D2E8C2DAB26AA27A92890001135
:10025400120708FFE4FCFDFEAB34AA33A932A8312F
:100264001208238F348E338D328C31AB26AA27A902
:100274002890000C120708701AE538252CF538E58B
:1002840037352BF537E536352AF536E5353529F595
:10029400358018E53C252CF53CE53B352BF53BE555
:1002A4003A352AF53AE5393529F53990000D120722
:1002B400087018E5382530F538E537352FF537E57A
:1002C40036352EF536E535352DF53590000E120709
:1002D40008701AE5382534F538E5373533F537E550
:1002E400363532F536E5353531F5358018E53C25BA
:1002F40034F53CE53B3533F53BE53A3532F53AE543
:10030400393531F5399000121207BEFFAEF0E4FC26
:10031400FDE5382FF538E5373EF537ED3536F5365A
:10032400EC3535F535AF3CAE3BAD3AAC39AB38AA1C
:1003340037A936F8D3120872404FE538953CF52CAE
:10034400E537953BF52BE536953AF52AE5359539AC
:10035400F529AE1AAF1BE4FCFDAB2CAA2BA92AA8E5
:1003640029C31208725011AB26AA27A9289000129B
:10037400E52B852CF00207F6AB26AA27A9289000C6
:1003840012E51A851BF00207F6AB26AA27A92890C6
:100394000012E4F5F00207F6AB26AA27A92890007C
:0703A40012E4F5F01207F668
:0103AB00222F
:100ED4000102040810204080C0F9A4B0999282F85D
:020EE4008090FC
:07000300C2A2C2A3C2A422A5
:100D9E00AD07AC06E4FBEC30E704D2A28002C2A29F
:100DAE00ED25E0FDEC33FCC2A30000D2A300000B46
:090DBE00BB10E3D2A40000C2A4A2
:010DC7002209
:080BB0008E268F278D288B296A
:100BB800E4FAF52C7C037DE81207698F2DAE26AF89
:100BC800277C037DE81207697E007F64CFCDCFCEF6
:100BD800CCCE1207698F2EAE26AF277C007D64121B
:100BE80007697E007F0ACFCDCFCECCCE1207698FA2
:100BF8002FAE26AF277C007D0A1207698D301200C0
:100C080003E5286005752C048003E4F52CAA2CE57F
:100C18002C2403FFE433FEEAD39FEE6480F874804B
:100C2800985040EA900ED493752A00F52BEA5403A5
:100C3800FBB52914242DF8E6900EDC93547FFDE5CE
:100C48002BF52AEDF52B8011742D2BF8E6900EDC90
:100C580093FDE52BF52AEDF52BAF2BAE2A120D9E51
:0A0C68000A80AC7FFF7E00020D9EA3
:03000000020C727D
:0C0C7200787FE4F6D8FD75813C020CB9D7
:10070800BB010CE58229F582E5833AF583E02250A6
:1007180006E92582F8E622BBFE06E92582F8E222F0
:0D072800E58229F582E5833AF583E493220A
:10073500F8BB010DE58229F582E5833AF583E8F0FA
:10074500225006E92582C8F622BBFE05E92582C8A6
:02075500F2228E
:10075700EF8DF0A4A8F0CF8CF0A428CE8DF0A42EB6
:02076700FE2270
:10076900BC000BBE0029EF8DF084FFADF022E4CC74
:10077900F875F008EF2FFFEE33FEEC33FCEE9DEC3D
:10078900984005FCEE9DFE0FD5F0E9E4CEFD22ED83
:10079900F8F5F0EE8420D21CFEADF075F008EF2FCD
:1007A900FFED33FD4007985006D5F0F222C398FDBE
:0507B9000FD5F0EA225B
:1007BE00BB0110E58229F582E5833AF583E0F5F079
:1007CE00A3E0225009E92582F886F008E622BBFE56
:1007DE000AE92582F8E2F5F008E222E5832AF5839C
:0807EE00E993F5F0A3E9932261
:1007F600F8BB0111E58229F582E5833AF583E8F035
:10080600E5F0A3F0225009E92582C8F608A6F022F1
:0D081600BBFE09E92582C8F2E5F008F222D8
:10082300E88FF0A4CC8BF0A42CFCE98EF0A42CFC74
:100833008AF0EDA42CFCEA8EF0A4CDA8F08BF0A4F2
:100843002DCC3825F0FDE98FF0A42CCD35F0FCEB51
:100853008EF0A4FEA9F0EB8FF0A4CFC5F02ECD3916
:0F086300FEE43CFCEAA42DCE35F0FDE43CFC2283
:10087200EB9FF5F0EA9E42F0E99D42F0E89C45F0DC
:010882002253
:10088300BB010789828A830209985005E9F80209A6
:100893008CBBFE05E9F80209A489828A830209B0A8
:1008A300BB010DE58229F582E5833AF583020998B8
:1008B3005007E92582F802098CBBFE07E92582F877
:1008C3000209A4E58229F582E5833AF5830209B09A
:1008D300BB010789828A83020A025005E9F80209EB
:0A08E300F6BBFE05E9F8020A0E223A
:1008ED00BB010DE58229F582E5833AF583020A0203
:1008FD005007E92582F80209F6BBFE07E92582F8C3
:04090D00020A0E22AA
:10091100BB010789828A830209CD5005E9F80209E2
:10092100C0BBFE05E9F80209D989828A830209E67A
:10093100BB010DE58229F582E5833AF5830209CDF4
:100941005007E92582F80209C0BBFE07E92582F8B4
:100951000209D9E58229F582E5833AF5830209E6A0
:1003AC00E5352429F8E60535227826300702782928
:1003BC00E475F001120A1A0209612000EB7F2ED2BB
:1003CC00008018EF540F2490D43440D4FF30040B29
:1003DC00EF24BFB41A0050032461FFE53660021508
:1003EC00360539E5397002053830070D7826E47585
:1003FC00F001120A1AEF02097A020DF07403D20707
:10040C008003E4C207F5358B268A278928E4F53664
:10041C00F538F539E53660077F201203E780F5756E
:10042C0037FFC201C200C202C203C205C206C20823
:10043C001203B5FF700D3007057F001203F8AF39BA
:10044C00AE3822B4255FC2D5C2041203B5FF24D046
:10045C00B40A00501A75F00A783630D50508B6FF84
:10046C000106C6A426F620D5047002D20380D92436
:10047C00CFB41A00EF5004C2E5D2040205F8D20141
:10048C0080C6D20080C0D20280BCD2D580BAD20540
:10049C0080B47F201203E72002077401B5360040B8
:1004AC00F11203ACFF1203E7020420D208D206803B
:1004BC00951203ACFB1203ACFA1203ACF94A4B7065
:1004CC000679C97A067BFF20022EE536602A7E006B
:1004DC008E8275830012070860060EEE653770F089
:1004EC00C2D5EBC0E0EAC0E0E9C0E0EE12063FD0B6
:1004FC00E0F9D0E0FAD0E0FB120961FF60AAEBC092
:10050C00E0EAC0E0E9C0E01203E7D0E02401F9D052
:10051C00E03400FAD0E0FBE5370460DCD537D98055
:10052C00877BFF7A06793BD202809C791080027916
:10053C0008C206C2088008D2D5790A8004790AC29A
:10054C00D5E537047002F537E4FAFDFEFF1203AC73
:10055C00FC7B082001131203ACFD7B1030000A1247
:10056C0003ACFE1203ACFF7B20EC3382D592D5504A
:10057C0013C3E43000069FFFE49EFEE42001039DBC
:10058C00FDE49CFCE4CBF8C201EC700CCFCECDCCDE
:10059C00E824F8F870F38017C3EF33FFEE33FEED69
:1005AC0033FDEC33FCEB33FB994002FB0FD8E9EB4A
:1005BC00300105F8D0E0C448B201C0E00AEC4D4E61
:1005CC004F78207B0070C2EAB5370040BCC0E01207
:1005DC000641D0F0D0E0200104C4C0E0C4B201C098
:1005EC00F01203D0D0F0D5F0EB020420120A2A044A
:1005FC00BD53053758048E4C048A42053B4F0543C6
:10060C004405434904A343054955052D46052D458D
:10061C00052D4706E95004922D04962E04B92B049F
:10062C009A2304B72006D72A045248000004B13F8D
:10063C003F3F00790AA2D5200314300509B91002F6
:10064C000404B9080104A2D52006025001042002BA
:05065C00689202B536B2
:10066100005034C0E07F203003197F30A2027206AF
:100671007205500F120698C202C206C205C2087F57
:1006810030800F300503E9C0E01203E7300503D0E5
:10069100E0F9D0E0B536CC3005177F30B9100C1237
:1006A10003E77F583004077F788003B908031203FA
:1006B100E73002057F2D0203E77F202008F87F2B1A
:1006C1002006F322920280CF286E756C6C29002DD2
:1006D10050434958D2011203AC3001F8C2017836B7
:1006E10030D50108F60204521203AC2403B405000C
:1006F1004001E49006D0931203D8743A1203D8D281
:070701000375360402053701
:100C7E00020A50E493A3F8E493A34003F68001F232
:100C8E0008DFF48029E493A3F85407240CC8C33377
:100C9E00C4540F4420C8834004F456800146F6DF46
:100CAE00E4800B0102040810204080900E9EE47E2A
:100CBE00019360BCA3FF543F30E509541FFEE4933B
:100CCE00A360010ECF54C025E060A840B8E493A302
:100CDE00FAE493A3F8E493A3C8C582C8CAC583CA2D
:100CEE00F0A3C8C582C8CAC583CADFE9DEE780BEE5
:010EBB000036
:10096100BB010689828A83E0225002E722BBFE0294
:09097100E32289828A83E49322C7
:10097A00BB010689828A83F0225002F722BBFE015C
:02098A00F32256
:0C098C00E6FC08E6FD08E6FE08E6FF2297
:0C099800E0FCA3E0FDA3E0FEA3E0FF22D2
:0C09A400E2FC08E2FD08E2FE08E2FF228F
:1009B000E493FC740193FD740293FE740393FF228D
:0D09C000E6FB08E6F908E6FA08E6CBF822A7
:0C09CD00E0F8A3E0F9A3E0FAA3E0FB22AD
:0D09D900E2FB08E2F908E2FA08E2CBF8229E
:1009E600E493F8740193F9740293FA740393FB2267
:0C09F600ECF608EDF608EEF608EFF6222D
:0C0A0200ECF0A3EDF0A3EEF0A3EFF02267
:0C0A0E00ECF208EDF208EEF208EFF22224
:100A1A00FAE6FB0808E6F925F0F618E6CA3AF622DD
:100A2A00D083D082F8E4937012740193700DA3A35B
:100A3A0093F8740193F5828883E47374029368606F
:060A4A00EFA3A3A380DF6F
:100DF000EFB40A07740D120DFB740A309811A8990C
:100E0000B8130CC2983098FDA899C298B811F63062
:070E100099FDC299F599223A
:00000001FF
