:10168900494E4954204F4B210A00736574207465F3
:101699006D703A2564007365743A25640074656D4C
:0616A900703A25640A00FE
:07175600021C0000011E004F
:10178E00538E7F5389F0438901E4F58A758CEEC23E
:08179E008DD28CD2A9D2AF223A
:1017A6001215BC1216D51216F612178E1200031257
:0517B600171702177473
:1010A600851C22851D23752401752590E4F526F5FA
:1010B60027752801F529F52AF52BF52CF52DF52EA2
:1010C600F52FF530F531F532F5331217A67BFF7A99
:1010D6001679891208FB90000F7402F0A3F0E4A3BE
:1010E600F090001404F0A37490F0E51E65267003DA
:0310F6000211D60E
:1010F90075340585261E12153F900016EEF0A3EFF4
:10110900F01534C3EE9400400CD3E094E890001637
:10111900E094034009D3E5346480948050D87B017E
:101129007A007900120D087BFF7A167993900014E2
:10113900E0F538A3E0F5391208FB7BFF7A16799FB1
:10114900900012E0F538A3E0F5391208FB7BFF7A2D
:101159001679A6900016E0F538A3E0F5391208FBD8
:10116900AE2CAF2D7C007D541205EE8C308D31AE46
:101179002EAF2F7C007D301205EE8C328D33E53198
:101189002401FFE43530FE7C007D541205EE8C2CE1
:101199008D2D900016E0FEA3E0FFC374309FFFE49D
:1011A9009EFE7C007D301205998C2E8D2FE53145F0
:1011B900306014E52D452C600EAF31AD33AB2D8574
:0D11C9002F381212B7800612177412171774
:1011D600E51D65237004E51C65226015D390001398
:1011E600E0951D900012E0951C4004C2A18002D239
:1011F600A130B70320B67AE527606DD3E51D9523A8
:10120600E51C95224013E51D9523FFE51C9522FE5E
:10121600C3EF9402EE94005024C3E51D9523E51C0C
:101226009522504DE51D24C8CFE4351CCFC3952328
:10123600CF9522FEC3EF9402EE94004034E5297068
:101246002220B70E900015E02464F0900014E034DC
:1012560000F020B60E900015E0240AF0900014E08D
:101266003400F07529018009752701851C22851D2A
:101276002330B70630B603E4F529D3900015E09481
:1012860084900014E0940340077401F0A37490F076
:10129600900016E0FEA3E0FF7B02E4FD1213F1903E
:1012A6000014E0FEA3E0FF7B027D011213F10210A1
:0112B600F047
:03000B0002158A51
:10158A00C0E0C0D0051DE51D7002051CC394C8E566
:10159A001C94004008751C00751D00051EE51EC33D
:1015AA0094054003751E00758A00758CEED0D0D064
:0215BA00E0321D
:10175D00100800010102030304040506060708082A
:02176D00090968
:0B17EF00EF1FAC0670011E4C70F622CC
:1015BC00E4FDD2A07F0AFE1217EFC2A07F507E007E
:1015CC001217EFD2A07F147E001217EFA2A0E43303
:0A15DC00FD7F1E7E001217EFD2A063
:0115E60022E2
:10173700E4FDFBC2A0EDC313FDD2A030A003430517
:0E174700807F087E001217EF0BBB08E7AF058E
:011755002271
:0815E7001215EF1215BC7FCCB8
:0215EF00AD0746
:1015F100E4FBC2A0ED1392A07F0A7E001217EFD286
:10160100A0EDC313FD0BBB08E97F087E000217EFB5
:10153F00E4F9FAF535F5361215EA7F441215E77F0F
:10154F00BE1215EF121737A907121737AA07EFADFB
:10155F0001F535EDF536E535C4F854F0C868FEE50C
:10156F0036C4540F48FF7C007D0A120587E53654B8
:0A157F000F2408F8E62FFFEC3EFEF3
:01158900223F
:1016D5001215EA7F4E1215EF7FFF1215EFE4FF1288
:1016E50015EF7F7F1215E77F481215E77FB80215C2
:0116F500EF05
:1016F60053877F759850538EBF538EFE53890F4381
:101706008920758BFD758DFDC2ABD28ED299D2AF75
:0117160022B0
:04176F00021A00C892
:060D08008B358A368937A5
:100D0E00E4F53BF53AF539F538F53FF53EF53DF5A9
:100D1E003CF543F542F541F540F547F546F545F509
:100D2E0044F54BF54AF549F548900016120624FF96
:100D3E00AEF0900014120624FDACF0D39FEC9E5042
:100D4E0003021096ED9FFFEC9EFED3EF9464EE949B
:100D5E0000400B900012E51A851BF002065CAB35C5
:100D6E00AA36A937E48F3B8E3AF539F53890000D47
:100D7E001205659000041207179000081207611201
:100D8E0006F7900004120761AF3BAE3AAD39AC38AE
:100D9E00120747AB35AA36A937900004120717126F
:100DAE000785D31206E64045AB35AA36A937900023
:100DBE00041207A5C000C001C002C003AB35AA369D
:100DCE00A9371206F7D003D002D001D000C3EF9B93
:100DDE00F53BEE9AF53AED99F539EC98F538AB35D9
:100DEE00AA36A93790000CE41205658044AB35AAEB
:100DFE0036A9379000041207A5C000C001C002C07A
:100E0E0003AB35AA36A9371206F7D003D002D001AC
:100E1E00D000C3EF9BF53BEE9AF53AED99F539EC20
:100E2E0098F538AB35AA36A93790000C7401120527
:100E3E0065AB35AA36A937900004120717E47B027A
:100E4E00FAF9F81206898F438E428D418C40AB35EC
:100E5E00AA36A937900008120717120785EB2FFF45
:100E6E00EA3EFEE93DFDE83CFCAB43AA42A941A89F
:100E7E0040C31206E6503FAB35AA36A9379000089C
:100E8E00120717120785EB2FFFEA3EFEE93DFDE83C
:100E9E003CFCC3EF9543F543EE9542F542ED95418B
:100EAE00F541EC9540F540AB35AA36A93790000ECA
:100EBE00E4120565803EAB35AA36A93790000812BC
:100ECE000717120785EB2FFBEA3EFAE93DF9E83CDE
:100EDE00F8C3E5439BF543E5429AF542E54199F5A2
:100EEE0041E54098F540AB35AA36A93790000E740F
:100EFE0001120565AB35AA36A93790000F120526EB
:100F0E00FFE4FCFDFEAB3BAA3AA939A838120689CC
:100F1E008F3B8E3A8D398C38AB35AA36A937900077
:100F2E0010120526FFE4FCFDFE1207851206898FBE
:100F3E003F8E3E8D3D8C3CAB35AA36A937900011C5
:100F4E00120526FFE4FCFDFEAB43AA42A941A840D0
:100F5E001206898F438E428D418C40AB35AA36A93D
:100F6E003790000C120526701AE547253BF547E52C
:100F7E0046353AF546E5453539F545E5443538F516
:100F8E00448018E54B253BF54BE54A353AF54AE5E5
:100F9E00493539F549E5483538F54890000D1205C3
:100FAE00267018E547253FF547E546353EF546E5FB
:100FBE0045353DF545E544353CF54490000E1205AA
:100FCE0026701AE5472543F547E5463542F546E5D1
:100FDE00453541F545E5443540F5448018E54B254A
:100FEE0043F54BE54A3542F54AE5493541F549E5C4
:100FFE00483540F548900012120624FFAEF0E4FC8E
:10100E00FDE5472FF547E5463EF546ED3545F545F9
:10101E00EC3544F544AF4BAE4AAD49AC48AB47AAAC
:10102E0046A945F8D31206E6404FE547954BF53BEA
:10103E00E546954AF53AE5459549F539E54495482D
:10104E00F538AE1AAF1BE4FCFDAB3BAA3AA939A8A2
:10105E0038C31206E65011AB35AA36A937900012E6
:10106E00E53A853BF002065CAB35AA36A93790000F
:10107E0012E51A851BF002065CAB35AA36A937902D
:10108E000012E4F5F002065CAB35AA36A9379000E3
:07109E0012E4F5F012065CFC
:0110A5002228
:1017CE000102040810204080C0F9A4B0999282F85A
:0217DE008090F9
:07000300C2A2C2A3C2A422A5
:10161100AD07AC06E4FBEC30E704D2A28002C2A223
:10162100ED25E0FDEC33FCC2A30000D2A300000BCA
:09163100BB10E3D2A40000C2A426
:01163A00228D
:0813F1008E358F368D378B38E5
:1013F900E4FAF53B7C037DE81205998F3CAE35AFE5
:10140900367C037DE81205997E007F64CFCDCFCE6F
:10141900CCCE1205998F3DAE35AF367C007D641276
:1014290005997E007F0ACFCDCFCECCCE1205998FFC
:101439003EAE35AF367C007D0A1205998D3F12000C
:1014490003E5376005753B048003E4F53BAA3BE5FA
:101459003B2403FFE433FEEAD39FEE6480F87480F3
:10146900985040EA9017CE93753900F53AEA54033B
:10147900FBB53814243CF8E69017D693547FFDE564
:101489003AF539EDF53A8011743C2BF8E69017D608
:1014990093FDE53AF539EDF53AAF3AAE3912161141
:0A14A9000A80AC7FFF7E00021611DE
:0E17E000E4FFFE0FBF00010EBE01F8BFF4F5DE
:0117EE0022D8
:1016AF00C2A5ED24FF92A6E4FEEF30E704D2B3808B
:1016BF0002C2B3EF25E0FFC2B4D2B40EBE08EAD225
:0516CF00A6D2A5D2B374
:0116D40022F3
:10171700C2A71217E0D2A7E4FD7F211216AFE47F1C
:10172700C01216AFE47F201216AFE47F0C0216AF8B
:1017BB00AC07ED4440FFE4FD1216AFEC4480FFE4B0
:0317CB000216AF54
:10177400E4FDFF1217BBE4FCE4FB7D01E4FF121659
:09178400AF0BBB54F50CBC06EFE1
:01178D002239
:02163B00AE05FA
:10163D00AC07EE131313541FFDEE5407FF7401A8EE
:10164D0007088002C333D8FCFBAF041217BBAF03EE
:05165D007D010216AF43
:0412B7008F358D36AC
:1012BB00C3EB9535FFC3E5389536F539C3EF64803D
:1012CB00948040048F4C8005EFF404F54CC3E53952
:1012DB0064809480400585394D8006E539F404F52A
:1012EB004DE54CD3954D4005854C3A8003854D3AE1
:1012FB00AC07EC1201B0C004C005C006C007AC3A85
:10130B00EC1201B0A804A905AA06AB07D007D006BA
:10131B00D005D0041201098F3F8E3E8D3D8C3CAC25
:10132B0039EC1201B0C004C005C006C007AC3AECE2
:10133B001201B0A804A905AA06AB07D007D006D0A6
:10134B0005D0041201098F438E428D418C40AC3580
:10135B00E41201B08F478E468D458C44AC36E412B7
:10136B0001B08F4B8E4A8D498C48753B01D3E53AC2
:10137B006480F8E53B648098506BE4FFFEFD7C3F96
:10138B00AB47AA46A945A8441200151201E4C007B1
:10139B00E4FFFEFD7C3FAB4BAA4AA949A8481200CB
:1013AB00151201E4AD07D00712163BAF47AE46ADA1
:1013BB0045AC44AB3FAA3EA93DA83C1200158F4754
:1013CB008E468D458C44AF4BAE4AAD49AC48AB43D2
:1013DB00AA42A941A8401200158F4B8E4A8D498C09
:0513EB0048053B80886D
:0113F00022DA
:10000E00020250E86480F8E933E83360110460F0CE
:10001E00ED33EC337009E8FCE9FDEAFEEBFF220458
:10002E0060DED3EB9FEA9EE99DE8C2E78CF0C2F753
:10003E0095F0400CE8CCF8E9CDF9EACEFAEBCFFB1F
:10004E0012021B85D0F05804700320D5B3E804705B
:10005E00075002B2D502025A92D5EC0460F7E4CCF6
:10006E00C0E0C398F8603B94186008400DD0E0FBE8
:10007E00020232E4FBFAC9FC8028E830E406E4C947
:10008E00FBE4CAFCE830E305E4C9CACBFCE854073C
:10009E006010F8C3E913F9EA13FAEB13FBEC13FC47
:1000AE00D8F130F52FC3E49CFCEF9BFFEE9AFEEDEA
:1000BE0099FDD0E0FBEF4E4D4C701222DB03020295
:1000CE0057EC2CFCEF33FFEE33FEED33FDED30E756
:1000DE00EB020232EF2BFFEE3AFEED39FDD0E0FBE4
:1000EE0050130BBB000302025AED13FDEE13FEEF8D
:0800FE0013FFEC13FC020232B7
:1001060002025AEC5D046005E859047003020250CD
:1001160012021B580460F6EC4860F2EC7004FDFE17
:10012600FF22C860DB2481C85009C39860025006CC
:100136000202579850CAF582E9294B4A7005AB82EC
:1001460002024675F0007C1A7880C3EF9BEE9AEDAA
:1001560099400DC3EF9BFFEE9AFEED99FDE842F044
:10016600DC23ACF0D0E0FFD0E0FED0E0FDAB822097
:10017600E7101BEB60BAEC2CFCEF33FFEE33FEED21
:1001860033FD020232E803F830E705C0F075F000EF
:10019600EF2FFFEE33FEED33FD40B830E7C280AA05
:1001A60075F020800E75F010800575F0087D007ED4
:1001B600007F003392D530D5031206D8EC334010B9
:1001C600EF33FFEE33FEED33FDEC33FCD5F0ED22DD
:0E01D600E5F0247EA2D513CC92E7CDCEFF2219
:1001E400EDD2E7CD33EC3392D524814006E4FFFE13
:1001F400FDFC22FCE4CFCECDCC24E0501174FF8072
:10020400EDC3CC13CCCD13CDCE13CECF13CF04700E
:07021400F030D5DE0206D830
:10089900E54C2438F8E6054C2278353007027838DB
:1008A900E475F0011207D502050D2000EB7F2ED269
:1008B900008018EF540F2490D43440D4FF30040B37
:1008C900EF24BFB41A0050032461FFE54D600215FF
:1008D9004D0550E5507002054F30070D7835E47528
:1008E900F0011207D5EF0205530216627403D2070D
:1008F9008003E4C207F54C8B358A368937E4F54D18
:10090900F54FF550E54D60077F201208D480F57545
:100919004EFFC201C200C202C203C205C206C2081A
:100929001208A2FF700D3007057F001208E5AF50CD
:10093900AE4F22B4255FC2D5C2041208A2FF24D04B
:10094900B40A00501A75F00A784D30D50508B6FF7B
:100959000106C6A426F620D5047002D20380D92444
:10096900CFB41A00EF5004C2E5D204020BD2D2016F
:1009790080C6D20080C0D20280BCD2D580BAD2054E
:1009890080B47F201208D42002077401B54D0040BD
:10099900F1120899FF1208D402090DD208D2068073
:1009A90095120899FB120899FA120899F94A4B709D
:1009B9000679C97A0C7BFF20022EE54D602A7E005C
:1009C9008E8275830012052660060EEE654E70F064
:1009D900C2D5EBC0E0EAC0E0E9C0E0EE120C32D0CB
:1009E900E0F9D0E0FAD0E0FB12050DFF60AAEBC0F8
:1009F900E0EAC0E0E9C0E01208D4D0E02401F9D06F
:100A0900E03400FAD0E0FBE54E0460DCD54ED98035
:100A190087D20280A2120C1560F7E54E700104120C
:100A29000265A94E600DE54E600914F54E120CBC25
:100A3900EF60F3EA30E702F404C3995077EAF4254A
:100A49004E0430E701E404F54E800D120C1560C127
:100A5900EA054E254E120265EA784BF630E701E4C5
:100A6900254E04D54E0420050114120C32E4C0E0D1
:100A7900120CBC784BE6601320E70714F61208BC89
:100A8900802204F6D0E014C0E07F001208BCE54ED5
:100A990060071208B3154E800B3005031208B3D056
:100AA900E002090DD0E00480C5120C1560A0E54EE6
:100AB90004120265784BEAF6E54E2005026001044E
:100AC9002404120C3274FF04C0E0120CBC1208BCDE
:100AD900E54E20050260031208B3D0E0B54EE87F69
:100AE900451208C6784BE67F2B30E7047F2DF404C6
:100AF900C0E01208D4D0E075F00A84C0F01208BD35
:100B0900D0E01208BD02090D791080027908C206E9
:100B1900C2088008D2D5790A8004790AC2D5E54E7F
:050B2900047002F54E0E
:100B2E00E4FAFDFEFF120899FC7B0820011312085F
:100B3E0099FD7B1030000A120899FE120899FF7B6E
:100B4E0020EC3382D592D55013C3E43000069FFFBC
:100B5E00E49EFEE42001039DFDE49CFCE4CBF8C280
:100B6E0001EC700CCFCECDCCE824F8F870F38017E2
:100B7E00C3EF33FFEE33FEED33FDEC33FCEB33FB13
:100B8E00994002FB0FD8E9EB300105F8D0E0C448DC
:100B9E00B201C0E00AEC4D4E4F78207B0070C2EAE5
:100BAE00B54E0040BCC0E0120C34D0F0D0E02001B5
:100BBE0004C4C0E0C4B201C0F01208BDD0F0D5F03C
:100BCE00EB02090D1207E509AA530B1158097B4CCC
:100BDE000977420B154F0B1D440B1D490990430B12
:100BEE0023550A54460AB2450A1E470CE950097F9E
:100BFE002D09832E09A62B09872309A4200CD72A99
:100C0E00093F480000099EE54EB4FF03754E0612DB
:100C1E000899FC120899FD120899FE120899FF789E
:100C2E0044020294790AA2D5200314300509B910A2
:100C3E00020404B9080104A2D520060250010420C2
:100C4E0002689202B54D005034C0E07F2030031987
:100C5E007F30A20272067205500F120C8BC202C2B6
:100C6E0006C205C2087F30800F300503E9C0E012CE
:100C7E0008D4300503D0E0F9D0E0B54DCC300517DF
:100C8E007F30B9100C1208D47F583004077F78805B
:100C9E0003B908031208D43002057F2D0208D47F51
:100CAE00202008F87F2B2006F322920280CF7F00AF
:100CBE00B4070050052444F8E6FF22286E756C6CCC
:100CCE0029002D50434958D2011208993001F8C21B
:100CDE0001784D30D50108F602093F120899240318
:100CEE00B405004001E4900CD0931208C5743A127A
:0A0CFE0008C5D203754D04020B1166
:10021B00E9D2E7C933E833F892D5EDD2E7CD33EC29
:07022B0033FC5002B2D522A2
:10023200EC30E7100FBF000C0EBE00080DBD00042D
:100242000BEB6014A2D5EB13FCED92E7FD2274FFD9
:10025200FCFDFEFF22E480F8A2D574FF13FC7D8032
:03026200E480EF46
:10026500F920E72824F950037907E4F42402FB1860
:10027500DBFDE624FB5014E9600DE4F618E604F610
:0F028500B40A08E4F6D9F57401F60A22C2D522AC
:10029400ED33EC3392D5FA602AB4FF33EDC2E77B39
:1002A400FF60067A0279B9E4227A0279C220D50481
:1002B4007A0279BD224E614E002B494E46002D49EB
:1002C4004E4600E47A08F608DAFC7B00740722E85C
:1002D400C0E0ECC0E0EDC0E0EEC0E0EFC0E0EA75E5
:1002E400F010A4CAABF075F04DA42BFBE435F0FC80
:1002F400EA2410FAEB34C5FBEC34D9FCEDC2E7FF79
:1003040075F056A4F42411C5F0F434C58FF0A42A72
:10031400E5F03BE43CF620E7141204CDD0E0FFD036
:10032400E0FED0E0FDD0E0FC1201098014F40412D8
:1003340004CDD0E0FFD0E0FED0E0FDD0E0FC12031D
:1003440097D0E0F8E6FAEDD2E7CD33EC332482FB24
:10035400E4C3CF33CFCE33CECD33CD33DBF37B0702
:1003640075F00A846004F6081B0AE5F0F6088FF0BD
:10037400740AA4FFACF08EF0740AA42CFEACF05006
:10038400010C8DF0740AA42CFDE435F0F608DBDED4
:03039400740722C9
:10039700EC4D6011E8497017ED33EC3304600DE460
:1003A700FCFFFEFD22E933E8330470F80202501225
:1003B700021B58046009E4CC248150062850090226
:1003C700025A284003020257C0E0EB4A7044B98042
:1003D70006D0E0FB020246EF4E701CBD8008EBFF23
:1003E700EAFEE9FD80EBE98DF0A4FEE5F00204806A
:1003F700E9CDF9EAFEEBFFEF89F0A4FCE5F0CE8941
:10040700F0A42EFFE435F0CD89F0A42DFEE435F0FD
:100417008067EF4E7005BD80D780C3EF8BF0A4AC2B
:10042700F0EE8BF0A42CFCE435F0F8EF8AF0A42C66
:10043700E5F038FCE433CB8DF0A42CFCE5F03BF879
:10044700EE8AF0A42CFCE5F038F8E433CF89F0A469
:100457002CFCE5F038CF3400CE89F0A42FFFE5F06F
:100467003EFEE433C98DF0A42EFEE5F039CD8AF0C7
:10047700A42FFFE5F03EFEE43DFD33D0E0FB50073F
:100487000BBB000F02025AEC2CFCEF33FFEE33FEDE
:06049700ED33FD0202320C
:10049D003F8000004120000042C80000447A000067
:1004AD00461C400047C35000497424004B189680E9
:1004BD004CBEBC205A0E1BCA6753C21C749DC5AEE0
:1004CD00FB60065407601C23231204FBEB543860B9
:1004DD00091204E71204F6120397ECF8EDF9EEFA9F
:1004ED00EFCB22EB1204F680F1543803241C900458
:1004FD009DFE93FC0EEE93FD0EEE930ECE93FF221A
:030000000214B334
:0C14B300787FE4F6D8FD7581500214FA31
:10050D00BB010689828A83E0225002E722BBFE02EC
:09051D00E32289828A83E493221F
:10052600BB010CE58229F582E5833AF583E022508A
:1005360006E92582F8E622BBFE06E92582F8E222D4
:0D054600E58229F582E5833AF583E49322EE
:10055300BB010689828A83F0225002F722BBFE0187
:02056300F32281
:10056500F8BB010DE58229F582E5833AF583E8F0CC
:10057500225006E92582C8F622BBFE05E92582C878
:02058500F22260
:10058700EF8DF0A4A8F0CF8CF0A428CE8DF0A42E88
:02059700FE2242
:10059900BC000BBE0029EF8DF084FFADF022E4CC46
:1005A900F875F008EF2FFFEE33FEEC33FCEE9DEC0F
:1005B900984005FCEE9DFE0FD5F0E9E4CEFD22ED55
:1005C900F8F5F0EE8420D21CFEADF075F008EF2F9F
:1005D900FFED33FD4007985006D5F0F222C398FD90
:0505E9000FD5F0EA222D
:1005EE00C2D5EC30E709B2D5E4C39DFDE49CFCEE28
:1005FE0030E715B2D5E4C39FFFE49EFE120599C302
:10060E00E49DFDE49CFC800312059930D507C3E4FC
:06061E009FFFE49EFE2296
:10062400BB0110E58229F582E5833AF583E0F5F014
:10063400A3E0225009E92582F886F008E622BBFEF1
:100644000AE92582F8E2F5F008E222E5832AF58337
:08065400E993F5F0A3E99322FC
:10065C00F8BB0111E58229F582E5833AF583E8F0D0
:10066C00E5F0A3F0225009E92582C8F608A6F0228D
:0D067C00BBFE09E92582C8F2E5F008F22274
:10068900E88FF0A4CC8BF0A42CFCE98EF0A42CFC10
:100699008AF0EDA42CFCEA8EF0A4CDA8F08BF0A48E
:1006A9002DCC3825F0FDE98FF0A42CCD35F0FCEBED
:1006B9008EF0A4FEA9F0EB8FF0A4CFC5F02ECD39B2
:0F06C900FEE43CFCEAA42DCE35F0FDE43CFC221F
:0E06D800C3E49FFFE49EFEE49DFDE49CFC2233
:1006E600EB9FF5F0EA9E42F0E99D42F0E89C45F06A
:0106F60022E1
:1006F700BB010789828A830208175005E9F80208B7
:100707000BBBFE05E9F802082389828A8302082FBA
:10071700BB010DE58229F582E5833AF583020817C7
:100727005007E92582F802080BBBFE07E92582F886
:10073700020823E58229F582E5833AF58302082F2B
:10074700BB010789828A830208815005E9F80208FC
:0A07570075BBFE05E9F802088D22CB
:10076100BB010DE58229F582E5833AF58302088113
:100771005007E92582F8020875BBFE07E92582F8D2
:0407810002088D22BB
:10078500BB010789828A8302084C5005E9F80208F3
:100795003FBBFE05E9F802085889828A830208658D
:1007A500BB010DE58229F582E5833AF58302084C04
:1007B5005007E92582F802083FBBFE07E92582F8C4
:1007C500020858E58229F582E5833AF58302086532
:1007D500FAE6FB0808E6F925F0F618E6CA3AF62225
:1007E500D083D082F8E4937012740193700DA3A3A3
:1007F50093F8740193F5828883E4737402936860B7
:06080500EFA3A3A380DFB6
:10166200EFB40A07740D12166D740A309811A89916
:10167200B8130CC2983098FDA899C298B811F630E8
:0716820099FDC299F59922C0
:1014BF000210A6E493A3F8E493A34003F68001F28D
:1014CF0008DFF48029E493A3F85407240CC8C3332E
:1014DF00C4540F4420C8834004F456800146F6DFFD
:1014EF00E4800B0102040810204080901756E47E20
:1014FF00019360BCA3FF543F30E509541FFEE493F2
:10150F00A360010ECF54C025E060A840B8E493A3B8
:10151F00FAE493A3F8E493A3C8C582C8CAC583CAE3
:10152F00F0A3C8C582C8CAC583CADFE9DEE780BE9B
:011773000075
:0C080B00E6FC08E6FD08E6FE08E6FF2219
:0C081700E0FCA3E0FDA3E0FEA3E0FF2254
:0C082300E2FC08E2FD08E2FE08E2FF2211
:10082F00E493FC740193FD740293FE740393FF220F
:0D083F00E6FB08E6F908E6FA08E6CBF82229
:0C084C00E0F8A3E0F9A3E0FAA3E0FB222F
:0D085800E2FB08E2F908E2FA08E2CBF82220
:10086500E493F8740193F9740293FA740393FB22E9
:0C087500ECF608EDF608EEF608EFF622AF
:0C088100ECF0A3EDF0A3EEF0A3EFF022EA
:0C088D00ECF208EDF208EEF208EFF222A7
:00000001FF
